{
  "contractName": "DappTokenSale",
  "abi": [
    {
      "constant": true,
      "inputs": [],
      "name": "tokenContract",
      "outputs": [
        {
          "name": "",
          "type": "address"
        }
      ],
      "payable": false,
      "stateMutability": "view",
      "type": "function"
    },
    {
      "constant": true,
      "inputs": [],
      "name": "tokenPrice",
      "outputs": [
        {
          "name": "",
          "type": "uint256"
        }
      ],
      "payable": false,
      "stateMutability": "view",
      "type": "function"
    },
    {
      "inputs": [
        {
          "name": "_tokenContract",
          "type": "address"
        },
        {
          "name": "_tokenPrice",
          "type": "uint256"
        }
      ],
      "payable": false,
      "stateMutability": "nonpayable",
      "type": "constructor"
    },
    {
      "constant": false,
      "inputs": [
        {
          "name": "_numberOfTokens",
          "type": "uint256"
        }
      ],
      "name": "buyTokens",
      "outputs": [],
      "payable": true,
      "stateMutability": "payable",
      "type": "function"
    }
  ],
  "bytecode": "0x608060405234801561001057600080fd5b506040516040806102288339810180604052604081101561003057600080fd5b810190808051906020019092919080519060200190929190505050336000806101000a81548173ffffffffffffffffffffffffffffffffffffffff021916908373ffffffffffffffffffffffffffffffffffffffff16021790555081600160006101000a81548173ffffffffffffffffffffffffffffffffffffffff021916908373ffffffffffffffffffffffffffffffffffffffff160217905550806002819055505050610144806100e46000396000f3fe6080604052600436106100345760003560e01c80633610724e1461003957806355a373d6146100675780637ff9b596146100be575b600080fd5b6100656004803603602081101561004f57600080fd5b81019080803590602001909291905050506100e9565b005b34801561007357600080fd5b5061007c6100ec565b604051808273ffffffffffffffffffffffffffffffffffffffff1673ffffffffffffffffffffffffffffffffffffffff16815260200191505060405180910390f35b3480156100ca57600080fd5b506100d3610112565b6040518082815260200191505060405180910390f35b50565b600160009054906101000a900473ffffffffffffffffffffffffffffffffffffffff1681565b6002548156fea165627a7a72305820a44be6fc990c83ea4cd24a2476e27474fb6c3d19e1f39fd71a2d944187b1c9c00029",
  "source": "pragma solidity ^0.5.0;\nimport './DappToken.sol';\n\ncontract DappTokenSale {\n  address admin;\n  DappToken public tokenContract;\n  uint256 public tokenPrice;\n\n  constructor(DappToken _tokenContract, uint256 _tokenPrice) public {\n    // Assign an Admin\n    admin = msg.sender;\n    // Token contract\n    tokenContract = _tokenContract;\n    // Token price\n    tokenPrice = _tokenPrice;\n  }\n\n  function buyTokens(uint256 _numberOfTokens) public payable {\n    // Require that value is equal to tokens\n    // Require that the contract has enough tokens\n    // Require that a transfer is successfull\n    // Keep track of token sold\n    // Trigger Sell event\n  }\n}\n",
  "sourcePath": "/home/ranjanmondal/Documents/project/smart-contract/ERC20-Contracts/contracts/DappTokenSale.sol",
  "compiler": {
    "name": "solc",
    "version": "0.5.8+commit.23d335f2.Emscripten.clang"
  },
  "schemaVersion": "3.0.11",
  "updatedAt": "2019-11-10T05:26:39.588Z",
  "devdoc": {
    "methods": {}
  },
  "userdoc": {
    "methods": {}
  }
}